{
  "address": "0x961Dd6A888ECB0Bb8c9754578aeD3B99EC2D77c2",
  "abi": [
    {
      "inputs": [
        {
          "internalType": "uint256",
          "name": "_lotteryDuration",
          "type": "uint256"
        }
      ],
      "stateMutability": "nonpayable",
      "type": "constructor"
    },
    {
      "anonymous": false,
      "inputs": [
        {
          "indexed": true,
          "internalType": "address",
          "name": "previousOwner",
          "type": "address"
        },
        {
          "indexed": true,
          "internalType": "address",
          "name": "newOwner",
          "type": "address"
        }
      ],
      "name": "OwnershipTransferred",
      "type": "event"
    },
    {
      "anonymous": false,
      "inputs": [
        {
          "indexed": true,
          "internalType": "address",
          "name": "winner",
          "type": "address"
        },
        {
          "indexed": false,
          "internalType": "uint256",
          "name": "reward",
          "type": "uint256"
        }
      ],
      "name": "WinnerPicked",
      "type": "event"
    },
    {
      "inputs": [],
      "name": "MANAGER_REWARD_PERCENTAGE",
      "outputs": [
        {
          "internalType": "uint256",
          "name": "",
          "type": "uint256"
        }
      ],
      "stateMutability": "view",
      "type": "function"
    },
    {
      "inputs": [],
      "name": "TICKET_PRICE",
      "outputs": [
        {
          "internalType": "uint256",
          "name": "",
          "type": "uint256"
        }
      ],
      "stateMutability": "view",
      "type": "function"
    },
    {
      "inputs": [
        {
          "internalType": "uint256",
          "name": "amount",
          "type": "uint256"
        }
      ],
      "name": "buyTicket",
      "outputs": [],
      "stateMutability": "payable",
      "type": "function"
    },
    {
      "inputs": [
        {
          "internalType": "address",
          "name": "player",
          "type": "address"
        }
      ],
      "name": "getMyTicketInfo",
      "outputs": [
        {
          "internalType": "uint256",
          "name": "",
          "type": "uint256"
        },
        {
          "internalType": "uint256",
          "name": "",
          "type": "uint256"
        }
      ],
      "stateMutability": "view",
      "type": "function"
    },
    {
      "inputs": [],
      "name": "getTotalPrizePool",
      "outputs": [
        {
          "internalType": "uint256",
          "name": "",
          "type": "uint256"
        }
      ],
      "stateMutability": "view",
      "type": "function"
    },
    {
      "inputs": [],
      "name": "getTotalTickets",
      "outputs": [
        {
          "internalType": "uint256",
          "name": "",
          "type": "uint256"
        }
      ],
      "stateMutability": "view",
      "type": "function"
    },
    {
      "inputs": [],
      "name": "getWinners",
      "outputs": [
        {
          "internalType": "address[]",
          "name": "",
          "type": "address[]"
        }
      ],
      "stateMutability": "view",
      "type": "function"
    },
    {
      "inputs": [],
      "name": "lotteryDuration",
      "outputs": [
        {
          "internalType": "uint256",
          "name": "",
          "type": "uint256"
        }
      ],
      "stateMutability": "view",
      "type": "function"
    },
    {
      "inputs": [],
      "name": "lotteryStartTime",
      "outputs": [
        {
          "internalType": "uint256",
          "name": "",
          "type": "uint256"
        }
      ],
      "stateMutability": "view",
      "type": "function"
    },
    {
      "inputs": [],
      "name": "owner",
      "outputs": [
        {
          "internalType": "address",
          "name": "",
          "type": "address"
        }
      ],
      "stateMutability": "view",
      "type": "function"
    },
    {
      "inputs": [],
      "name": "pickWinner",
      "outputs": [],
      "stateMutability": "nonpayable",
      "type": "function"
    },
    {
      "inputs": [
        {
          "internalType": "uint256",
          "name": "",
          "type": "uint256"
        }
      ],
      "name": "players",
      "outputs": [
        {
          "internalType": "address",
          "name": "",
          "type": "address"
        }
      ],
      "stateMutability": "view",
      "type": "function"
    },
    {
      "inputs": [],
      "name": "renounceOwnership",
      "outputs": [],
      "stateMutability": "nonpayable",
      "type": "function"
    },
    {
      "inputs": [
        {
          "internalType": "address",
          "name": "",
          "type": "address"
        }
      ],
      "name": "tickets",
      "outputs": [
        {
          "internalType": "uint256",
          "name": "",
          "type": "uint256"
        }
      ],
      "stateMutability": "view",
      "type": "function"
    },
    {
      "inputs": [
        {
          "internalType": "address",
          "name": "newOwner",
          "type": "address"
        }
      ],
      "name": "transferOwnership",
      "outputs": [],
      "stateMutability": "nonpayable",
      "type": "function"
    },
    {
      "inputs": [
        {
          "internalType": "uint256",
          "name": "",
          "type": "uint256"
        }
      ],
      "name": "winners",
      "outputs": [
        {
          "internalType": "address",
          "name": "",
          "type": "address"
        }
      ],
      "stateMutability": "view",
      "type": "function"
    }
  ],
  "transactionHash": "0x6533362d499495692f7d543f02b7d9fa64a906334d3bb1d8bc917e541423634c",
  "args": [
    86400
  ],
  "numDeployments": 1,
  "solcInputHash": "14e087e6929dd808d1a570f33e57488c",
  "bytecode": "0x608060405234801561001057600080fd5b50604051610ca3380380610ca383398101604081905261002f916100e7565b61003833610097565b4260045560055533600081815260016020819052604082208190556002805491820181559091527f405787fa12a823e0f2b7631cc41b3ba8828b3321ca811111fa75cd3aa3bb5ace0180546001600160a01b0319169091179055610100565b600080546001600160a01b038381166001600160a01b0319831681178455604051919092169283917f8be0079c531659141344cd1fd0a4f28419497f9722a3daafe3b4186f6b6457e09190a35050565b6000602082840312156100f957600080fd5b5051919050565b610b948061010f6000396000f3fe6080604052600436106100f35760003560e01c8063845121921161008a578063a36b6aea11610059578063a36b6aea1461026a578063df15c37e14610280578063f2fde38b146102a2578063f71d96cb146102c257600080fd5b806384512192146101ce5780638c5c0d2d146102035780638da5cb5b14610218578063a2fb11751461024a57600080fd5b80635d495aea116100c65780635d495aea1461016257806367dd74ca146101795780636dcbf2a31461018c578063715018a6146101b957600080fd5b806306e8337f146100f8578063160a48b91461011c5780631a95f15f146101315780632d97902f1461014c575b600080fd5b34801561010457600080fd5b506002545b6040519081526020015b60405180910390f35b34801561012857600080fd5b506101096102e2565b34801561013d57600080fd5b5061010966038d7ea4c6800081565b34801561015857600080fd5b5061010960055481565b34801561016e57600080fd5b50610177610304565b005b6101776101873660046109a9565b610679565b34801561019857600080fd5b506101096101a73660046109c2565b60016020526000908152604090205481565b3480156101c557600080fd5b50610177610764565b3480156101da57600080fd5b506101ee6101e93660046109c2565b610778565b60408051928352602083019190915201610113565b34801561020f57600080fd5b50610109600281565b34801561022457600080fd5b506000546001600160a01b03165b6040516001600160a01b039091168152602001610113565b34801561025657600080fd5b506102326102653660046109a9565b6107b1565b34801561027657600080fd5b5061010960045481565b34801561028c57600080fd5b506102956107db565b60405161011391906109f2565b3480156102ae57600080fd5b506101776102bd3660046109c2565b61083d565b3480156102ce57600080fd5b506102326102dd3660046109a9565b6108b6565b600066038d7ea4c680006102f560025490565b6102ff9190610a55565b905090565b6005546004546103149190610a6c565b4210156103685760405162461bcd60e51b815260206004820152601860248201527f4c6f7474657279206973207374696c6c206f6e676f696e67000000000000000060448201526064015b60405180910390fd5b600061037360025490565b116103cb5760405162461bcd60e51b815260206004820152602260248201527f4e6f207469636b6574732068617665206265656e207075726368617365642079604482015261195d60f21b606482015260840161035f565b60006103d660025490565b423360026040516020016103ec93929190610a7f565b6040516020818303038152906040528051906020012060001c61040f9190610af7565b905060006002828154811061042657610426610b0b565b60009182526020822001546001600160a01b0316915061045a6064610454600261044e6102e2565b906108c6565b906108db565b905060006104708261046a6102e2565b906108e7565b90506000836001600160a01b03166108fc839081150290604051600060405180830381858888f193505050509050806104eb5760405162461bcd60e51b815260206004820152601960248201527f5472616e7366657220746f2077696e6e6572206661696c656400000000000000604482015260640161035f565b600080546040516001600160a01b039091169185156108fc02918691818181858888f193505050509050806105625760405162461bcd60e51b815260206004820152601860248201527f5472616e7366657220746f206f776e6572206661696c65640000000000000000604482015260640161035f565b836001600160a01b03167f64791dbae5677392ba76761a5273633cec8f1d9d8cfe808da7bac6ef16a880be8360405161059d91815260200190565b60405180910390a25b600254156105e65760028054806105bf576105bf610b21565b600082815260209020810160001990810180546001600160a01b03191690550190556105a6565b50506002805460018082019092557f405787fa12a823e0f2b7631cc41b3ba8828b3321ca811111fa75cd3aa3bb5ace018054336001600160a01b0319918216179091556003805492830181556000527fc2575a0e9e593c00f959f8c92f12db2869c3395a3b0502d05e2516446f71f85b90910180549091166001600160a01b039390931692909217909155505042600455565b66038d7ea4c680008110156106db5760405162461bcd60e51b815260206004820152602260248201527f596f75206d7573742073656e64206174206c6561737420302e3030312065746860448201526132b960f11b606482015260840161035f565b60006106ee8266038d7ea4c680006108db565b3360009081526001602052604090205490915061070b90826108f3565b33600081815260016020819052604082209390935560028054938401815590527f405787fa12a823e0f2b7631cc41b3ba8828b3321ca811111fa75cd3aa3bb5ace90910180546001600160a01b03191690911790555050565b61076c6108ff565b6107766000610959565b565b6001600160a01b0381166000908152600160205260408120548190816107a566038d7ea4c6800083610a55565b91959194509092505050565b600381815481106107c157600080fd5b6000918252602090912001546001600160a01b0316905081565b6060600380548060200260200160405190810160405280929190818152602001828054801561083357602002820191906000526020600020905b81546001600160a01b03168152600190910190602001808311610815575b5050505050905090565b6108456108ff565b6001600160a01b0381166108aa5760405162461bcd60e51b815260206004820152602660248201527f4f776e61626c653a206e6577206f776e657220697320746865207a65726f206160448201526564647265737360d01b606482015260840161035f565b6108b381610959565b50565b600281815481106107c157600080fd5b60006108d28284610a55565b90505b92915050565b60006108d28284610b37565b60006108d28284610b4b565b60006108d28284610a6c565b6000546001600160a01b031633146107765760405162461bcd60e51b815260206004820181905260248201527f4f776e61626c653a2063616c6c6572206973206e6f7420746865206f776e6572604482015260640161035f565b600080546001600160a01b038381166001600160a01b0319831681178455604051919092169283917f8be0079c531659141344cd1fd0a4f28419497f9722a3daafe3b4186f6b6457e09190a35050565b6000602082840312156109bb57600080fd5b5035919050565b6000602082840312156109d457600080fd5b81356001600160a01b03811681146109eb57600080fd5b9392505050565b6020808252825182820181905260009190848201906040850190845b81811015610a335783516001600160a01b031683529284019291840191600101610a0e565b50909695505050505050565b634e487b7160e01b600052601160045260246000fd5b80820281158282048414176108d5576108d5610a3f565b808201808211156108d5576108d5610a3f565b838152600060206bffffffffffffffffffffffff198560601b1681840152603483018454856000528260002060005b82811015610ad35781546001600160a01b031684529284019260019182019101610aae565b509198975050505050505050565b634e487b7160e01b600052601260045260246000fd5b600082610b0657610b06610ae1565b500690565b634e487b7160e01b600052603260045260246000fd5b634e487b7160e01b600052603160045260246000fd5b600082610b4657610b46610ae1565b500490565b818103818111156108d5576108d5610a3f56fea264697066735822122063e5ebce6d80a6b4c4e15518d610523619d1ff1338510ecf50de4c6af9ad576964736f6c63430008110033",
  "devdoc": {
    "kind": "dev",
    "methods": {
      "owner()": {
        "details": "Returns the address of the current owner."
      },
      "renounceOwnership()": {
        "details": "Leaves the contract without owner. It will not be possible to call `onlyOwner` functions anymore. Can only be called by the current owner. NOTE: Renouncing ownership will leave the contract without an owner, thereby removing any functionality that is only available to the owner."
      },
      "transferOwnership(address)": {
        "details": "Transfers ownership of the contract to a new account (`newOwner`). Can only be called by the current owner."
      }
    },
    "version": 1
  },
  "userdoc": {
    "kind": "user",
    "methods": {},
    "version": 1
  },
  "storageLayout": {
    "storage": [
      {
        "astId": 7,
        "contract": "contracts/Lottery.sol:Lottery",
        "label": "_owner",
        "offset": 0,
        "slot": "0",
        "type": "t_address"
      },
      {
        "astId": 459,
        "contract": "contracts/Lottery.sol:Lottery",
        "label": "tickets",
        "offset": 0,
        "slot": "1",
        "type": "t_mapping(t_address,t_uint256)"
      },
      {
        "astId": 462,
        "contract": "contracts/Lottery.sol:Lottery",
        "label": "players",
        "offset": 0,
        "slot": "2",
        "type": "t_array(t_address)dyn_storage"
      },
      {
        "astId": 465,
        "contract": "contracts/Lottery.sol:Lottery",
        "label": "winners",
        "offset": 0,
        "slot": "3",
        "type": "t_array(t_address)dyn_storage"
      },
      {
        "astId": 467,
        "contract": "contracts/Lottery.sol:Lottery",
        "label": "lotteryStartTime",
        "offset": 0,
        "slot": "4",
        "type": "t_uint256"
      },
      {
        "astId": 469,
        "contract": "contracts/Lottery.sol:Lottery",
        "label": "lotteryDuration",
        "offset": 0,
        "slot": "5",
        "type": "t_uint256"
      }
    ],
    "types": {
      "t_address": {
        "encoding": "inplace",
        "label": "address",
        "numberOfBytes": "20"
      },
      "t_array(t_address)dyn_storage": {
        "base": "t_address",
        "encoding": "dynamic_array",
        "label": "address[]",
        "numberOfBytes": "32"
      },
      "t_mapping(t_address,t_uint256)": {
        "encoding": "mapping",
        "key": "t_address",
        "label": "mapping(address => uint256)",
        "numberOfBytes": "32",
        "value": "t_uint256"
      },
      "t_uint256": {
        "encoding": "inplace",
        "label": "uint256",
        "numberOfBytes": "32"
      }
    }
  }
}