{
  "address": "0x168c318Be04a15673a2Eac04A14c093b9F536A4E",
  "abi": [
    {
      "inputs": [],
      "stateMutability": "nonpayable",
      "type": "constructor"
    },
    {
      "anonymous": false,
      "inputs": [
        {
          "indexed": true,
          "internalType": "address",
          "name": "previousOwner",
          "type": "address"
        },
        {
          "indexed": true,
          "internalType": "address",
          "name": "newOwner",
          "type": "address"
        }
      ],
      "name": "OwnershipTransferred",
      "type": "event"
    },
    {
      "anonymous": false,
      "inputs": [
        {
          "indexed": false,
          "internalType": "address",
          "name": "winner",
          "type": "address"
        },
        {
          "indexed": false,
          "internalType": "uint256",
          "name": "reward",
          "type": "uint256"
        }
      ],
      "name": "WinnerPicked",
      "type": "event"
    },
    {
      "inputs": [],
      "name": "enter",
      "outputs": [],
      "stateMutability": "payable",
      "type": "function"
    },
    {
      "inputs": [],
      "name": "getPlayers",
      "outputs": [
        {
          "internalType": "address[]",
          "name": "",
          "type": "address[]"
        }
      ],
      "stateMutability": "view",
      "type": "function"
    },
    {
      "inputs": [],
      "name": "getTotalTickets",
      "outputs": [
        {
          "internalType": "uint256",
          "name": "",
          "type": "uint256"
        }
      ],
      "stateMutability": "view",
      "type": "function"
    },
    {
      "inputs": [],
      "name": "getWinners",
      "outputs": [
        {
          "internalType": "address[]",
          "name": "",
          "type": "address[]"
        }
      ],
      "stateMutability": "view",
      "type": "function"
    },
    {
      "inputs": [],
      "name": "owner",
      "outputs": [
        {
          "internalType": "address",
          "name": "",
          "type": "address"
        }
      ],
      "stateMutability": "view",
      "type": "function"
    },
    {
      "inputs": [],
      "name": "pickWinner",
      "outputs": [],
      "stateMutability": "nonpayable",
      "type": "function"
    },
    {
      "inputs": [
        {
          "internalType": "uint256",
          "name": "",
          "type": "uint256"
        }
      ],
      "name": "players",
      "outputs": [
        {
          "internalType": "address",
          "name": "",
          "type": "address"
        }
      ],
      "stateMutability": "view",
      "type": "function"
    },
    {
      "inputs": [],
      "name": "renounceOwnership",
      "outputs": [],
      "stateMutability": "nonpayable",
      "type": "function"
    },
    {
      "inputs": [
        {
          "internalType": "address",
          "name": "",
          "type": "address"
        }
      ],
      "name": "tickets",
      "outputs": [
        {
          "internalType": "uint256",
          "name": "",
          "type": "uint256"
        }
      ],
      "stateMutability": "view",
      "type": "function"
    },
    {
      "inputs": [
        {
          "internalType": "address",
          "name": "newOwner",
          "type": "address"
        }
      ],
      "name": "transferOwnership",
      "outputs": [],
      "stateMutability": "nonpayable",
      "type": "function"
    },
    {
      "inputs": [
        {
          "internalType": "uint256",
          "name": "",
          "type": "uint256"
        }
      ],
      "name": "winners",
      "outputs": [
        {
          "internalType": "address",
          "name": "",
          "type": "address"
        }
      ],
      "stateMutability": "view",
      "type": "function"
    }
  ],
  "transactionHash": "0x8712cec0884f00af6e5f4ac0f179db97afdafb7d44b96112ecfbef09df3d9407",
  "args": [],
  "numDeployments": 11,
  "solcInputHash": "65e74abb7b0a3df7396825e77bb93142",
  "bytecode": "0x608060405234801561001057600080fd5b5061001a33610072565b33600081815260016020819052604082208190556002805491820181559091527f405787fa12a823e0f2b7631cc41b3ba8828b3321ca811111fa75cd3aa3bb5ace0180546001600160a01b03191690911790556100c2565b600080546001600160a01b038381166001600160a01b0319831681178455604051919092169283917f8be0079c531659141344cd1fd0a4f28419497f9722a3daafe3b4186f6b6457e09190a35050565b610a96806100d16000396000f3fe60806040526004361061009c5760003560e01c80638da5cb5b116100645780638da5cb5b14610144578063a2fb117514610176578063df15c37e14610196578063e97dcb62146101ab578063f2fde38b146101b3578063f71d96cb146101d357600080fd5b806306e8337f146100a15780635d495aea146100c95780636dcbf2a3146100e0578063715018a61461010d5780638b5b9ccc14610122575b600080fd5b3480156100ad57600080fd5b506100b66101f3565b6040519081526020015b60405180910390f35b3480156100d557600080fd5b506100de610262565b005b3480156100ec57600080fd5b506100b66100fb366004610921565b60016020526000908152604090205481565b34801561011957600080fd5b506100de61057f565b34801561012e57600080fd5b50610137610593565b6040516100c09190610951565b34801561015057600080fd5b506000546001600160a01b03165b6040516001600160a01b0390911681526020016100c0565b34801561018257600080fd5b5061015e61019136600461099e565b6105f5565b3480156101a257600080fd5b5061013761061f565b6100de61067f565b3480156101bf57600080fd5b506100de6101ce366004610921565b610758565b3480156101df57600080fd5b5061015e6101ee36600461099e565b6107d1565b600080805b60025481101561025c576001600060028381548110610219576102196109b7565b60009182526020808320909101546001600160a01b0316835282019290925260400190205461024890836109e3565b915080610254816109f6565b9150506101f8565b50919050565b61026a6107e1565b60006102746101f3565b116102d15760405162461bcd60e51b815260206004820152602260248201527f4e6f207469636b6574732068617665206265656e207075726368617365642079604482015261195d60f21b60648201526084015b60405180910390fd5b60006102db6101f3565b90506000816102e861083b565b6102f29190610a25565b90506000808080805b6002548110156103965761034b600160006002848154811061031f5761031f6109b7565b60009182526020808320909101546001600160a01b03168352820192909252604001902054869061088a565b9450858511156103845760028181548110610368576103686109b7565b6000918252602090912001546001600160a01b03169350610396565b8061038e816109f6565b9150506102fb565b506103a2603247610a39565b90506103ae8147610a4d565b91506000836001600160a01b03166108fc849081150290604051600060405180830381858888f193505050509050806104295760405162461bcd60e51b815260206004820152601960248201527f5472616e7366657220746f2077696e6e6572206661696c65640000000000000060448201526064016102c8565b600080546040516001600160a01b039091169184156108fc02918591818181858888f193505050509050806104a05760405162461bcd60e51b815260206004820152601860248201527f5472616e7366657220746f206f776e6572206661696c6564000000000000000060448201526064016102c8565b604080516001600160a01b0386168152602081018590527f64791dbae5677392ba76761a5273633cec8f1d9d8cfe808da7bac6ef16a880be910160405180910390a16104ee600260006108ef565b50506002805460018082019092557f405787fa12a823e0f2b7631cc41b3ba8828b3321ca811111fa75cd3aa3bb5ace018054336001600160a01b0319918216179091556003805492830181556000527fc2575a0e9e593c00f959f8c92f12db2869c3395a3b0502d05e2516446f71f85b90910180549091166001600160a01b03939093169290921790915550505050565b6105876107e1565b610591600061089f565b565b606060028054806020026020016040519081016040528092919081815260200182805480156105eb57602002820191906000526020600020905b81546001600160a01b031681526001909101906020018083116105cd575b5050505050905090565b6003818154811061060557600080fd5b6000918252602090912001546001600160a01b0316905081565b606060038054806020026020016040519081016040528092919081815260200182805480156105eb576020028201919060005260206000209081546001600160a01b031681526001909101906020018083116105cd575050505050905090565b600061069266038d7ea4c6800034610a39565b9050600081116106ef5760405162461bcd60e51b815260206004820152602260248201527f596f75206d7573742073656e64206174206c6561737420302e3030312065746860448201526132b960f11b60648201526084016102c8565b336000908152600160205260408120805483929061070e9084906109e3565b9091555050600280546001810182556000919091527f405787fa12a823e0f2b7631cc41b3ba8828b3321ca811111fa75cd3aa3bb5ace0180546001600160a01b0319163317905550565b6107606107e1565b6001600160a01b0381166107c55760405162461bcd60e51b815260206004820152602660248201527f4f776e61626c653a206e6577206f776e657220697320746865207a65726f206160448201526564647265737360d01b60648201526084016102c8565b6107ce8161089f565b50565b6002818154811061060557600080fd5b6000546001600160a01b031633146105915760405162461bcd60e51b815260206004820181905260248201527f4f776e61626c653a2063616c6c6572206973206e6f7420746865206f776e657260448201526064016102c8565b6000444260028054905061084d6101f3565b6040805160208101959095528401929092526060830152608082015260a0016040516020818303038152906040528051906020012060001c905090565b600061089682846109e3565b90505b92915050565b600080546001600160a01b038381166001600160a01b0319831681178455604051919092169283917f8be0079c531659141344cd1fd0a4f28419497f9722a3daafe3b4186f6b6457e09190a35050565b50805460008255906000526020600020908101906107ce91905b8082111561091d5760008155600101610909565b5090565b60006020828403121561093357600080fd5b81356001600160a01b038116811461094a57600080fd5b9392505050565b6020808252825182820181905260009190848201906040850190845b818110156109925783516001600160a01b03168352928401929184019160010161096d565b50909695505050505050565b6000602082840312156109b057600080fd5b5035919050565b634e487b7160e01b600052603260045260246000fd5b634e487b7160e01b600052601160045260246000fd5b80820180821115610899576108996109cd565b600060018201610a0857610a086109cd565b5060010190565b634e487b7160e01b600052601260045260246000fd5b600082610a3457610a34610a0f565b500690565b600082610a4857610a48610a0f565b500490565b81810381811115610899576108996109cd56fea2646970667358221220c2c2caf1c7a7754ed6e5859612577691fda5337ed35f412b6b72d7c27e17086e64736f6c63430008110033",
  "devdoc": {
    "kind": "dev",
    "methods": {
      "owner()": {
        "details": "Returns the address of the current owner."
      },
      "renounceOwnership()": {
        "details": "Leaves the contract without owner. It will not be possible to call `onlyOwner` functions anymore. Can only be called by the current owner. NOTE: Renouncing ownership will leave the contract without an owner, thereby removing any functionality that is only available to the owner."
      },
      "transferOwnership(address)": {
        "details": "Transfers ownership of the contract to a new account (`newOwner`). Can only be called by the current owner."
      }
    },
    "version": 1
  },
  "userdoc": {
    "kind": "user",
    "methods": {},
    "version": 1
  },
  "storageLayout": {
    "storage": [
      {
        "astId": 7,
        "contract": "contracts/Lottery.sol:Lottery",
        "label": "_owner",
        "offset": 0,
        "slot": "0",
        "type": "t_address"
      },
      {
        "astId": 459,
        "contract": "contracts/Lottery.sol:Lottery",
        "label": "tickets",
        "offset": 0,
        "slot": "1",
        "type": "t_mapping(t_address,t_uint256)"
      },
      {
        "astId": 462,
        "contract": "contracts/Lottery.sol:Lottery",
        "label": "players",
        "offset": 0,
        "slot": "2",
        "type": "t_array(t_address)dyn_storage"
      },
      {
        "astId": 465,
        "contract": "contracts/Lottery.sol:Lottery",
        "label": "winners",
        "offset": 0,
        "slot": "3",
        "type": "t_array(t_address)dyn_storage"
      }
    ],
    "types": {
      "t_address": {
        "encoding": "inplace",
        "label": "address",
        "numberOfBytes": "20"
      },
      "t_array(t_address)dyn_storage": {
        "base": "t_address",
        "encoding": "dynamic_array",
        "label": "address[]",
        "numberOfBytes": "32"
      },
      "t_mapping(t_address,t_uint256)": {
        "encoding": "mapping",
        "key": "t_address",
        "label": "mapping(address => uint256)",
        "numberOfBytes": "32",
        "value": "t_uint256"
      },
      "t_uint256": {
        "encoding": "inplace",
        "label": "uint256",
        "numberOfBytes": "32"
      }
    }
  }
}