{
  "address": "0x9D74e731d553280a3D0Cb988355f555C4eeb99Ee",
  "abi": [
    {
      "inputs": [],
      "stateMutability": "nonpayable",
      "type": "constructor"
    },
    {
      "anonymous": false,
      "inputs": [
        {
          "indexed": true,
          "internalType": "address",
          "name": "previousOwner",
          "type": "address"
        },
        {
          "indexed": true,
          "internalType": "address",
          "name": "newOwner",
          "type": "address"
        }
      ],
      "name": "OwnershipTransferred",
      "type": "event"
    },
    {
      "anonymous": false,
      "inputs": [
        {
          "indexed": false,
          "internalType": "address",
          "name": "winner",
          "type": "address"
        },
        {
          "indexed": false,
          "internalType": "uint256",
          "name": "reward",
          "type": "uint256"
        }
      ],
      "name": "WinnerPicked",
      "type": "event"
    },
    {
      "inputs": [],
      "name": "enter",
      "outputs": [],
      "stateMutability": "payable",
      "type": "function"
    },
    {
      "inputs": [],
      "name": "getMyTicketValue",
      "outputs": [
        {
          "internalType": "uint256",
          "name": "",
          "type": "uint256"
        }
      ],
      "stateMutability": "view",
      "type": "function"
    },
    {
      "inputs": [],
      "name": "getMyTickets",
      "outputs": [
        {
          "internalType": "uint256",
          "name": "",
          "type": "uint256"
        }
      ],
      "stateMutability": "view",
      "type": "function"
    },
    {
      "inputs": [],
      "name": "getPlayers",
      "outputs": [
        {
          "internalType": "address[]",
          "name": "",
          "type": "address[]"
        }
      ],
      "stateMutability": "view",
      "type": "function"
    },
    {
      "inputs": [],
      "name": "getTotalPrizePool",
      "outputs": [
        {
          "internalType": "uint256",
          "name": "",
          "type": "uint256"
        }
      ],
      "stateMutability": "view",
      "type": "function"
    },
    {
      "inputs": [],
      "name": "getTotalTickets",
      "outputs": [
        {
          "internalType": "uint256",
          "name": "",
          "type": "uint256"
        }
      ],
      "stateMutability": "view",
      "type": "function"
    },
    {
      "inputs": [],
      "name": "getWinners",
      "outputs": [
        {
          "internalType": "address[]",
          "name": "",
          "type": "address[]"
        }
      ],
      "stateMutability": "view",
      "type": "function"
    },
    {
      "inputs": [],
      "name": "owner",
      "outputs": [
        {
          "internalType": "address",
          "name": "",
          "type": "address"
        }
      ],
      "stateMutability": "view",
      "type": "function"
    },
    {
      "inputs": [],
      "name": "pickWinner",
      "outputs": [],
      "stateMutability": "nonpayable",
      "type": "function"
    },
    {
      "inputs": [
        {
          "internalType": "uint256",
          "name": "",
          "type": "uint256"
        }
      ],
      "name": "players",
      "outputs": [
        {
          "internalType": "address",
          "name": "",
          "type": "address"
        }
      ],
      "stateMutability": "view",
      "type": "function"
    },
    {
      "inputs": [],
      "name": "renounceOwnership",
      "outputs": [],
      "stateMutability": "nonpayable",
      "type": "function"
    },
    {
      "inputs": [
        {
          "internalType": "address",
          "name": "",
          "type": "address"
        }
      ],
      "name": "tickets",
      "outputs": [
        {
          "internalType": "uint256",
          "name": "",
          "type": "uint256"
        }
      ],
      "stateMutability": "view",
      "type": "function"
    },
    {
      "inputs": [
        {
          "internalType": "address",
          "name": "newOwner",
          "type": "address"
        }
      ],
      "name": "transferOwnership",
      "outputs": [],
      "stateMutability": "nonpayable",
      "type": "function"
    },
    {
      "inputs": [
        {
          "internalType": "uint256",
          "name": "",
          "type": "uint256"
        }
      ],
      "name": "winners",
      "outputs": [
        {
          "internalType": "address",
          "name": "",
          "type": "address"
        }
      ],
      "stateMutability": "view",
      "type": "function"
    }
  ],
  "transactionHash": "0x322bd44a4fd234b62e327b522ac26463642ae9e875d9c5ab4b48baa689d0d043",
  "args": [],
  "numDeployments": 12,
  "solcInputHash": "0cf0336dc281221ab542eed93f364bb0",
  "bytecode": "0x608060405234801561001057600080fd5b5061001a33610072565b33600081815260016020819052604082208190556002805491820181559091527f405787fa12a823e0f2b7631cc41b3ba8828b3321ca811111fa75cd3aa3bb5ace0180546001600160a01b03191690911790556100c2565b600080546001600160a01b038381166001600160a01b0319831681178455604051919092169283917f8be0079c531659141344cd1fd0a4f28419497f9722a3daafe3b4186f6b6457e09190a35050565b610b7b806100d16000396000f3fe6080604052600436106100dd5760003560e01c80638da5cb5b1161007f578063e1d10d8511610059578063e1d10d8514610216578063e97dcb6214610238578063f2fde38b14610240578063f71d96cb1461026057600080fd5b80638da5cb5b146101af578063a2fb1175146101e1578063df15c37e1461020157600080fd5b80635d495aea116100bb5780635d495aea146101345780636dcbf2a31461014b578063715018a6146101785780638b5b9ccc1461018d57600080fd5b806306e8337f146100e2578063160a48b91461010a578063289c8cfd1461011f575b600080fd5b3480156100ee57600080fd5b506100f7610280565b6040519081526020015b60405180910390f35b34801561011657600080fd5b506100f76102ef565b34801561012b57600080fd5b506100f761030f565b34801561014057600080fd5b50610149610330565b005b34801561015757600080fd5b506100f76101663660046109ef565b60016020526000908152604090205481565b34801561018457600080fd5b5061014961064d565b34801561019957600080fd5b506101a2610661565b6040516101019190610a1f565b3480156101bb57600080fd5b506000546001600160a01b03165b6040516001600160a01b039091168152602001610101565b3480156101ed57600080fd5b506101c96101fc366004610a6c565b6106c3565b34801561020d57600080fd5b506101a26106ed565b34801561022257600080fd5b50336000908152600160205260409020546100f7565b61014961074d565b34801561024c57600080fd5b5061014961025b3660046109ef565b610826565b34801561026c57600080fd5b506101c961027b366004610a6c565b61089f565b600080805b6002548110156102e95760016000600283815481106102a6576102a6610a85565b60009182526020808320909101546001600160a01b031683528201929092526040019020546102d59083610ab1565b9150806102e181610ac4565b915050610285565b50919050565b60006102f9610280565b61030a9066038d7ea4c68000610add565b905090565b3360009081526001602052604081205461030a9066038d7ea4c68000610add565b6103386108af565b6000610342610280565b1161039f5760405162461bcd60e51b815260206004820152602260248201527f4e6f207469636b6574732068617665206265656e207075726368617365642079604482015261195d60f21b60648201526084015b60405180910390fd5b60006103a9610280565b90506000816103b6610909565b6103c09190610b0a565b90506000808080805b6002548110156104645761041960016000600284815481106103ed576103ed610a85565b60009182526020808320909101546001600160a01b031683528201929092526040019020548690610958565b945085851115610452576002818154811061043657610436610a85565b6000918252602090912001546001600160a01b03169350610464565b8061045c81610ac4565b9150506103c9565b50610470603247610b1e565b905061047c8147610b32565b91506000836001600160a01b03166108fc849081150290604051600060405180830381858888f193505050509050806104f75760405162461bcd60e51b815260206004820152601960248201527f5472616e7366657220746f2077696e6e6572206661696c6564000000000000006044820152606401610396565b600080546040516001600160a01b039091169184156108fc02918591818181858888f1935050505090508061056e5760405162461bcd60e51b815260206004820152601860248201527f5472616e7366657220746f206f776e6572206661696c656400000000000000006044820152606401610396565b604080516001600160a01b0386168152602081018590527f64791dbae5677392ba76761a5273633cec8f1d9d8cfe808da7bac6ef16a880be910160405180910390a16105bc600260006109bd565b50506002805460018082019092557f405787fa12a823e0f2b7631cc41b3ba8828b3321ca811111fa75cd3aa3bb5ace018054336001600160a01b0319918216179091556003805492830181556000527fc2575a0e9e593c00f959f8c92f12db2869c3395a3b0502d05e2516446f71f85b90910180549091166001600160a01b03939093169290921790915550505050565b6106556108af565b61065f600061096d565b565b606060028054806020026020016040519081016040528092919081815260200182805480156106b957602002820191906000526020600020905b81546001600160a01b0316815260019091019060200180831161069b575b5050505050905090565b600381815481106106d357600080fd5b6000918252602090912001546001600160a01b0316905081565b606060038054806020026020016040519081016040528092919081815260200182805480156106b9576020028201919060005260206000209081546001600160a01b0316815260019091019060200180831161069b575050505050905090565b600061076066038d7ea4c6800034610b1e565b9050600081116107bd5760405162461bcd60e51b815260206004820152602260248201527f596f75206d7573742073656e64206174206c6561737420302e3030312065746860448201526132b960f11b6064820152608401610396565b33600090815260016020526040812080548392906107dc908490610ab1565b9091555050600280546001810182556000919091527f405787fa12a823e0f2b7631cc41b3ba8828b3321ca811111fa75cd3aa3bb5ace0180546001600160a01b0319163317905550565b61082e6108af565b6001600160a01b0381166108935760405162461bcd60e51b815260206004820152602660248201527f4f776e61626c653a206e6577206f776e657220697320746865207a65726f206160448201526564647265737360d01b6064820152608401610396565b61089c8161096d565b50565b600281815481106106d357600080fd5b6000546001600160a01b0316331461065f5760405162461bcd60e51b815260206004820181905260248201527f4f776e61626c653a2063616c6c6572206973206e6f7420746865206f776e65726044820152606401610396565b6000444260028054905061091b610280565b6040805160208101959095528401929092526060830152608082015260a0016040516020818303038152906040528051906020012060001c905090565b60006109648284610ab1565b90505b92915050565b600080546001600160a01b038381166001600160a01b0319831681178455604051919092169283917f8be0079c531659141344cd1fd0a4f28419497f9722a3daafe3b4186f6b6457e09190a35050565b508054600082559060005260206000209081019061089c91905b808211156109eb57600081556001016109d7565b5090565b600060208284031215610a0157600080fd5b81356001600160a01b0381168114610a1857600080fd5b9392505050565b6020808252825182820181905260009190848201906040850190845b81811015610a605783516001600160a01b031683529284019291840191600101610a3b565b50909695505050505050565b600060208284031215610a7e57600080fd5b5035919050565b634e487b7160e01b600052603260045260246000fd5b634e487b7160e01b600052601160045260246000fd5b8082018082111561096757610967610a9b565b600060018201610ad657610ad6610a9b565b5060010190565b808202811582820484141761096757610967610a9b565b634e487b7160e01b600052601260045260246000fd5b600082610b1957610b19610af4565b500690565b600082610b2d57610b2d610af4565b500490565b8181038181111561096757610967610a9b56fea26469706673582212204fc56e158f804ea204e9da21476fa4d2d91178b38750c4a858c1b1f15853163c64736f6c63430008110033",
  "devdoc": {
    "kind": "dev",
    "methods": {
      "owner()": {
        "details": "Returns the address of the current owner."
      },
      "renounceOwnership()": {
        "details": "Leaves the contract without owner. It will not be possible to call `onlyOwner` functions anymore. Can only be called by the current owner. NOTE: Renouncing ownership will leave the contract without an owner, thereby removing any functionality that is only available to the owner."
      },
      "transferOwnership(address)": {
        "details": "Transfers ownership of the contract to a new account (`newOwner`). Can only be called by the current owner."
      }
    },
    "version": 1
  },
  "userdoc": {
    "kind": "user",
    "methods": {},
    "version": 1
  },
  "storageLayout": {
    "storage": [
      {
        "astId": 7,
        "contract": "contracts/Lottery.sol:Lottery",
        "label": "_owner",
        "offset": 0,
        "slot": "0",
        "type": "t_address"
      },
      {
        "astId": 459,
        "contract": "contracts/Lottery.sol:Lottery",
        "label": "tickets",
        "offset": 0,
        "slot": "1",
        "type": "t_mapping(t_address,t_uint256)"
      },
      {
        "astId": 462,
        "contract": "contracts/Lottery.sol:Lottery",
        "label": "players",
        "offset": 0,
        "slot": "2",
        "type": "t_array(t_address)dyn_storage"
      },
      {
        "astId": 465,
        "contract": "contracts/Lottery.sol:Lottery",
        "label": "winners",
        "offset": 0,
        "slot": "3",
        "type": "t_array(t_address)dyn_storage"
      }
    ],
    "types": {
      "t_address": {
        "encoding": "inplace",
        "label": "address",
        "numberOfBytes": "20"
      },
      "t_array(t_address)dyn_storage": {
        "base": "t_address",
        "encoding": "dynamic_array",
        "label": "address[]",
        "numberOfBytes": "32"
      },
      "t_mapping(t_address,t_uint256)": {
        "encoding": "mapping",
        "key": "t_address",
        "label": "mapping(address => uint256)",
        "numberOfBytes": "32",
        "value": "t_uint256"
      },
      "t_uint256": {
        "encoding": "inplace",
        "label": "uint256",
        "numberOfBytes": "32"
      }
    }
  }
}