{
  "address": "0xA3bd04A6bbc929a0ea7Df2ED821d73dbA529316A",
  "abi": [
    {
      "inputs": [
        {
          "internalType": "uint256",
          "name": "_lotteryDuration",
          "type": "uint256"
        }
      ],
      "stateMutability": "payable",
      "type": "constructor"
    },
    {
      "anonymous": false,
      "inputs": [
        {
          "indexed": false,
          "internalType": "uint256",
          "name": "pauseTime",
          "type": "uint256"
        }
      ],
      "name": "LotteryPaused",
      "type": "event"
    },
    {
      "anonymous": false,
      "inputs": [
        {
          "indexed": false,
          "internalType": "uint256",
          "name": "resetTime",
          "type": "uint256"
        }
      ],
      "name": "LotteryReset",
      "type": "event"
    },
    {
      "anonymous": false,
      "inputs": [
        {
          "indexed": false,
          "internalType": "uint256",
          "name": "startTime",
          "type": "uint256"
        },
        {
          "indexed": false,
          "internalType": "uint256",
          "name": "duration",
          "type": "uint256"
        }
      ],
      "name": "LotteryStarted",
      "type": "event"
    },
    {
      "anonymous": false,
      "inputs": [
        {
          "indexed": true,
          "internalType": "address",
          "name": "previousOwner",
          "type": "address"
        },
        {
          "indexed": true,
          "internalType": "address",
          "name": "newOwner",
          "type": "address"
        }
      ],
      "name": "OwnershipTransferred",
      "type": "event"
    },
    {
      "anonymous": false,
      "inputs": [
        {
          "indexed": true,
          "internalType": "address",
          "name": "buyer",
          "type": "address"
        },
        {
          "indexed": false,
          "internalType": "uint256",
          "name": "numTickets",
          "type": "uint256"
        }
      ],
      "name": "TicketBought",
      "type": "event"
    },
    {
      "anonymous": false,
      "inputs": [
        {
          "indexed": true,
          "internalType": "address",
          "name": "winner",
          "type": "address"
        },
        {
          "indexed": false,
          "internalType": "uint256",
          "name": "reward",
          "type": "uint256"
        }
      ],
      "name": "WinnerPicked",
      "type": "event"
    },
    {
      "anonymous": false,
      "inputs": [
        {
          "indexed": true,
          "internalType": "address",
          "name": "recipient",
          "type": "address"
        },
        {
          "indexed": false,
          "internalType": "uint256",
          "name": "amount",
          "type": "uint256"
        }
      ],
      "name": "Withdrawn",
      "type": "event"
    },
    {
      "inputs": [],
      "name": "MANAGER_REWARD_PERCENTAGE",
      "outputs": [
        {
          "internalType": "uint256",
          "name": "",
          "type": "uint256"
        }
      ],
      "stateMutability": "view",
      "type": "function"
    },
    {
      "inputs": [],
      "name": "TICKET_PRICE",
      "outputs": [
        {
          "internalType": "uint256",
          "name": "",
          "type": "uint256"
        }
      ],
      "stateMutability": "view",
      "type": "function"
    },
    {
      "inputs": [
        {
          "internalType": "uint256",
          "name": "amount",
          "type": "uint256"
        }
      ],
      "name": "buyTicket",
      "outputs": [],
      "stateMutability": "payable",
      "type": "function"
    },
    {
      "inputs": [
        {
          "internalType": "address",
          "name": "player",
          "type": "address"
        }
      ],
      "name": "getMyTicketInfo",
      "outputs": [
        {
          "internalType": "uint256",
          "name": "",
          "type": "uint256"
        }
      ],
      "stateMutability": "view",
      "type": "function"
    },
    {
      "inputs": [],
      "name": "getTotalPrizePool",
      "outputs": [
        {
          "internalType": "uint256",
          "name": "",
          "type": "uint256"
        }
      ],
      "stateMutability": "view",
      "type": "function"
    },
    {
      "inputs": [],
      "name": "getTotalTickets",
      "outputs": [
        {
          "internalType": "uint256",
          "name": "",
          "type": "uint256"
        }
      ],
      "stateMutability": "view",
      "type": "function"
    },
    {
      "inputs": [],
      "name": "getWinners",
      "outputs": [
        {
          "internalType": "address[]",
          "name": "",
          "type": "address[]"
        }
      ],
      "stateMutability": "view",
      "type": "function"
    },
    {
      "inputs": [],
      "name": "isLotteryActive",
      "outputs": [
        {
          "internalType": "bool",
          "name": "",
          "type": "bool"
        }
      ],
      "stateMutability": "view",
      "type": "function"
    },
    {
      "inputs": [],
      "name": "lotteryDuration",
      "outputs": [
        {
          "internalType": "uint256",
          "name": "",
          "type": "uint256"
        }
      ],
      "stateMutability": "view",
      "type": "function"
    },
    {
      "inputs": [],
      "name": "lotteryStartTime",
      "outputs": [
        {
          "internalType": "uint256",
          "name": "",
          "type": "uint256"
        }
      ],
      "stateMutability": "view",
      "type": "function"
    },
    {
      "inputs": [],
      "name": "owner",
      "outputs": [
        {
          "internalType": "address",
          "name": "",
          "type": "address"
        }
      ],
      "stateMutability": "view",
      "type": "function"
    },
    {
      "inputs": [],
      "name": "pauseLottery",
      "outputs": [],
      "stateMutability": "nonpayable",
      "type": "function"
    },
    {
      "inputs": [
        {
          "internalType": "address",
          "name": "",
          "type": "address"
        }
      ],
      "name": "pendingWithdrawals",
      "outputs": [
        {
          "internalType": "uint256",
          "name": "",
          "type": "uint256"
        }
      ],
      "stateMutability": "view",
      "type": "function"
    },
    {
      "inputs": [],
      "name": "pickWinner",
      "outputs": [],
      "stateMutability": "nonpayable",
      "type": "function"
    },
    {
      "inputs": [
        {
          "internalType": "uint256",
          "name": "",
          "type": "uint256"
        }
      ],
      "name": "players",
      "outputs": [
        {
          "internalType": "address",
          "name": "",
          "type": "address"
        }
      ],
      "stateMutability": "view",
      "type": "function"
    },
    {
      "inputs": [],
      "name": "renounceOwnership",
      "outputs": [],
      "stateMutability": "nonpayable",
      "type": "function"
    },
    {
      "inputs": [],
      "name": "startLottery",
      "outputs": [],
      "stateMutability": "nonpayable",
      "type": "function"
    },
    {
      "inputs": [
        {
          "internalType": "address",
          "name": "",
          "type": "address"
        }
      ],
      "name": "tickets",
      "outputs": [
        {
          "internalType": "uint256",
          "name": "",
          "type": "uint256"
        }
      ],
      "stateMutability": "view",
      "type": "function"
    },
    {
      "inputs": [],
      "name": "totalPendingWithdrawals",
      "outputs": [
        {
          "internalType": "uint256",
          "name": "",
          "type": "uint256"
        }
      ],
      "stateMutability": "view",
      "type": "function"
    },
    {
      "inputs": [],
      "name": "totalTickets",
      "outputs": [
        {
          "internalType": "uint256",
          "name": "",
          "type": "uint256"
        }
      ],
      "stateMutability": "view",
      "type": "function"
    },
    {
      "inputs": [
        {
          "internalType": "address",
          "name": "newOwner",
          "type": "address"
        }
      ],
      "name": "transferOwnership",
      "outputs": [],
      "stateMutability": "nonpayable",
      "type": "function"
    },
    {
      "inputs": [
        {
          "internalType": "address",
          "name": "",
          "type": "address"
        }
      ],
      "name": "uniquePlayers",
      "outputs": [
        {
          "internalType": "bool",
          "name": "",
          "type": "bool"
        }
      ],
      "stateMutability": "view",
      "type": "function"
    },
    {
      "inputs": [
        {
          "internalType": "address",
          "name": "_to",
          "type": "address"
        }
      ],
      "name": "withdraw",
      "outputs": [],
      "stateMutability": "nonpayable",
      "type": "function"
    }
  ],
  "transactionHash": "0xb05a301a0f5e96c4692363b20019312b327f75f7ec7fd1c3bd90c2a0d78bed2e",
  "args": [
    86400
  ],
  "numDeployments": 17,
  "solcInputHash": "71e8557bcabf559c9492c7578f0c538c",
  "bytecode": "0x608060408190526007805460ff191660011790556113623881900390819083398101604081905261002f916100d2565b61003833610082565b426008819055600982905560408051918252602082018390527f42da29f4f7ae27bdc650322fcbe8b195ca17a63b0ae83b04577efe0e3e079c0c910160405180910390a1506100eb565b600080546001600160a01b038381166001600160a01b0319831681178455604051919092169283917f8be0079c531659141344cd1fd0a4f28419497f9722a3daafe3b4186f6b6457e09190a35050565b6000602082840312156100e457600080fd5b5051919050565b611268806100fa6000396000f3fe6080604052600436106101405760003560e01c806384512192116100b6578063c3b69ebb1161006f578063c3b69ebb1461034e578063dd11247e14610368578063df15c37e1461037e578063f2fde38b146103a0578063f3f43703146103c0578063f71d96cb146103ed57600080fd5b806384512192146102905780638c5c0d2d146102c65780638da5cb5b146102db578063a36b6aea1461030d578063a4563e0314610323578063ab73e1441461033957600080fd5b8063356016881161010857806335601688146101c657806351cff8d9146102065780635d495aea1461022657806367dd74ca1461023b5780636dcbf2a31461024e578063715018a61461027b57600080fd5b806306e8337f14610145578063160344e214610169578063160a48b9146101805780631a95f15f146101955780632d97902f146101b0575b600080fd5b34801561015157600080fd5b506004545b6040519081526020015b60405180910390f35b34801561017557600080fd5b5061017e61040d565b005b34801561018c57600080fd5b50610156610469565b3480156101a157600080fd5b5061015666038d7ea4c6800081565b3480156101bc57600080fd5b5061015660095481565b3480156101d257600080fd5b506101f66101e1366004611064565b60036020526000908152604090205460ff1681565b6040519015158152602001610160565b34801561021257600080fd5b5061017e610221366004611064565b61048b565b34801561023257600080fd5b5061017e61064b565b61017e610249366004611094565b610a38565b34801561025a57600080fd5b50610156610269366004611064565b60026020526000908152604090205481565b34801561028757600080fd5b5061017e610b93565b34801561029c57600080fd5b506101566102ab366004611064565b6001600160a01b031660009081526002602052604090205490565b3480156102d257600080fd5b50610156600281565b3480156102e757600080fd5b506000546001600160a01b03165b6040516001600160a01b039091168152602001610160565b34801561031957600080fd5b5061015660085481565b34801561032f57600080fd5b5061015660065481565b34801561034557600080fd5b5061017e610ba7565b34801561035a57600080fd5b506007546101f69060ff1681565b34801561037457600080fd5b50610156600a5481565b34801561038a57600080fd5b50610393610cfd565b60405161016091906110ad565b3480156103ac57600080fd5b5061017e6103bb366004611064565b610d5f565b3480156103cc57600080fd5b506101566103db366004611064565b60016020526000908152604090205481565b3480156103f957600080fd5b506102f5610408366004611094565b610dd8565b610415610e02565b6007805460ff191660011790556009546040517f42da29f4f7ae27bdc650322fcbe8b195ca17a63b0ae83b04577efe0e3e079c0c9161045f91429190918252602082015260400190565b60405180910390a1565b600066038d7ea4c6800061047c60045490565b6104869190611110565b905090565b600b5460ff16156104d35760405162461bcd60e51b815260206004820152600d60248201526c4e6f207265656e7472616e637960981b60448201526064015b60405180910390fd5b600b805460ff191660019081179091553360009081526020919091526040902054806105385760405162461bcd60e51b81526020600482015260146024820152734e6f2066756e647320746f20776974686472617760601b60448201526064016104ca565b33600090815260016020526040812081905560068054839283929161055e908490611127565b90915550506040516000906001600160a01b0385169083908381818185875af1925050503d80600081146105ae576040519150601f19603f3d011682016040523d82523d6000602084013e6105b3565b606091505b50509050806105f85760405162461bcd60e51b815260206004820152601160248201527015da5d1a191c985dd85b0819985a5b1959607a1b60448201526064016104ca565b836001600160a01b03167f7084f5476618d8e60b11ef0d7d3f06914655adb8793e28ff7f018d4c76d505d58360405161063391815260200190565b60405180910390a25050600b805460ff191690555050565b610653610e02565b600954600854610663919061113a565b4210156106b25760405162461bcd60e51b815260206004820152601860248201527f4c6f7474657279206973207374696c6c206f6e676f696e67000000000000000060448201526064016104ca565b60006106bd60045490565b116107155760405162461bcd60e51b815260206004820152602260248201527f4e6f207469636b6574732068617665206265656e207075726368617365642079604482015261195d60f21b60648201526084016104ca565b600061071f610e5c565b9050600061072c60045490565b6107369083611163565b60045490915081106107985760405162461bcd60e51b815260206004820152602560248201527f57696e6e696e67207469636b657420696e646578206973206f7574206f6620626044820152646f756e647360d81b60648201526084016104ca565b6000600482815481106107ad576107ad611177565b60009182526020822001546001600160a01b031691506107cb610469565b905060006107e560646107df846002610e92565b90610ea7565b905060006107f38383610eb3565b90506000846001600160a01b03168260405160006040518083038185875af1925050503d8060008114610842576040519150601f19603f3d011682016040523d82523d6000602084013e610847565b606091505b50509050806108985760405162461bcd60e51b815260206004820152601960248201527f5472616e7366657220746f2077696e6e6572206661696c65640000000000000060448201526064016104ca565b600080546040516001600160a01b039091169085908381818185875af1925050503d80600081146108e5576040519150601f19603f3d011682016040523d82523d6000602084013e6108ea565b606091505b505090508061093b5760405162461bcd60e51b815260206004820152601860248201527f5472616e7366657220746f206f776e6572206661696c6564000000000000000060448201526064016104ca565b600580546001810182556000919091527f036b6384b5eca791c62761152d0c79bb0604c104a5fb6f4eb0703f3154bb3db00180546001600160a01b0319166001600160a01b03881617905561098e610ebf565b6001600160a01b0386166000908152600160208190526040822085905585916109bf6000546001600160a01b031690565b6001600160a01b03166001600160a01b0316815260200190815260200160002081905550856001600160a01b03167f64791dbae5677392ba76761a5273633cec8f1d9d8cfe808da7bac6ef16a880be84604051610a1e91815260200190565b60405180910390a2610a2e610f8a565b5050505050505050565b66038d7ea4c68000811015610a9a5760405162461bcd60e51b815260206004820152602260248201527f596f75206d7573742073656e64206174206c6561737420302e3030312065746860448201526132b960f11b60648201526084016104ca565b6000610aad8266038d7ea4c68000610ea7565b33600090815260026020526040902054909150610aca9082611008565b3360009081526002602090815260408083209390935560039052205460ff16610b4a57336000818152600360205260408120805460ff191660019081179091556004805491820181559091527f8a35acfbc15ff81a39ae7d344fd709f28e8600b4aa8c65c6b64bfe7fe36bd19b0180546001600160a01b03191690911790555b600a54610b579082611008565b600a5560405181815233907f985d112c54c7518a49841fc37640d9ded60112ea7370ca9129c8ed33c3607bc79060200160405180910390a25050565b610b9b610e02565b610ba56000611014565b565b610baf610e02565b6007805460ff1916905560005b600454811015610c8b57600060048281548110610bdb57610bdb611177565b60009182526020808320909101546001600160a01b03168083526002909152604082205490925090610c1466038d7ea4c6800083611110565b6001600160a01b038416600090815260016020526040812080549293508392909190610c4190849061113a565b925050819055508060066000828254610c5a919061113a565b909155505050506001600160a01b031660009081526002602052604081205580610c838161118d565b915050610bbc565b505b60045415610ccd576004805480610ca657610ca66111a6565b600082815260209020810160001990810180546001600160a01b0319169055019055610c8d565b6040514281527f80b4aff693f3545cc79908b448a1955e5c410bca854c7d75ff3a7ef84b80f8379060200161045f565b60606005805480602002602001604051908101604052809291908181526020018280548015610d5557602002820191906000526020600020905b81546001600160a01b03168152600190910190602001808311610d37575b5050505050905090565b610d67610e02565b6001600160a01b038116610dcc5760405162461bcd60e51b815260206004820152602660248201527f4f776e61626c653a206e6577206f776e657220697320746865207a65726f206160448201526564647265737360d01b60648201526084016104ca565b610dd581611014565b50565b60048181548110610de857600080fd5b6000918252602090912001546001600160a01b0316905081565b6000546001600160a01b03163314610ba55760405162461bcd60e51b815260206004820181905260248201527f4f776e61626c653a2063616c6c6572206973206e6f7420746865206f776e657260448201526064016104ca565b600042336004604051602001610e74939291906111bc565b6040516020818303038152906040528051906020012060001c905090565b6000610e9e8284611110565b90505b92915050565b6000610e9e828461121e565b6000610e9e8284611127565b60055415610eff576005805480610ed857610ed86111a6565b600082815260209020810160001990810180546001600160a01b0319169055019055610ebf565b600454600090600a10610f1457600454610f17565b600a5b905060005b81811015610f8657600560048281548110610f3957610f39611177565b60009182526020808320909101548354600181018555938352912090910180546001600160a01b0319166001600160a01b0390921691909117905580610f7e8161118d565b915050610f1c565b5050565b60045415610fca576004805480610fa357610fa36111a6565b600082815260209020810160001990810180546001600160a01b0319169055019055610f8a565b610fd2610ebf565b4260088190556040519081527f6564d21026f38ac4bc4ef082b01864f3ae6869e139a373fdf664a27a6c6dbebb9060200161045f565b6000610e9e828461113a565b600080546001600160a01b038381166001600160a01b0319831681178455604051919092169283917f8be0079c531659141344cd1fd0a4f28419497f9722a3daafe3b4186f6b6457e09190a35050565b60006020828403121561107657600080fd5b81356001600160a01b038116811461108d57600080fd5b9392505050565b6000602082840312156110a657600080fd5b5035919050565b6020808252825182820181905260009190848201906040850190845b818110156110ee5783516001600160a01b0316835292840192918401916001016110c9565b50909695505050505050565b634e487b7160e01b600052601160045260246000fd5b8082028115828204841417610ea157610ea16110fa565b81810381811115610ea157610ea16110fa565b80820180821115610ea157610ea16110fa565b634e487b7160e01b600052601260045260246000fd5b6000826111725761117261114d565b500690565b634e487b7160e01b600052603260045260246000fd5b60006001820161119f5761119f6110fa565b5060010190565b634e487b7160e01b600052603160045260246000fd5b838152600060206bffffffffffffffffffffffff198560601b1681840152603483018454856000528260002060005b828110156112105781546001600160a01b0316845292840192600191820191016111eb565b509198975050505050505050565b60008261122d5761122d61114d565b50049056fea26469706673582212209d936e57ae94dc3ac43d054acb50020f23f5d94bac828625de663109c5ae47f964736f6c63430008110033",
  "devdoc": {
    "kind": "dev",
    "methods": {
      "owner()": {
        "details": "Returns the address of the current owner."
      },
      "renounceOwnership()": {
        "details": "Leaves the contract without owner. It will not be possible to call `onlyOwner` functions anymore. Can only be called by the current owner. NOTE: Renouncing ownership will leave the contract without an owner, thereby removing any functionality that is only available to the owner."
      },
      "transferOwnership(address)": {
        "details": "Transfers ownership of the contract to a new account (`newOwner`). Can only be called by the current owner."
      }
    },
    "version": 1
  },
  "userdoc": {
    "kind": "user",
    "methods": {},
    "version": 1
  },
  "storageLayout": {
    "storage": [
      {
        "astId": 7,
        "contract": "contracts/Lottery.sol:Lottery",
        "label": "_owner",
        "offset": 0,
        "slot": "0",
        "type": "t_address"
      },
      {
        "astId": 459,
        "contract": "contracts/Lottery.sol:Lottery",
        "label": "pendingWithdrawals",
        "offset": 0,
        "slot": "1",
        "type": "t_mapping(t_address,t_uint256)"
      },
      {
        "astId": 463,
        "contract": "contracts/Lottery.sol:Lottery",
        "label": "tickets",
        "offset": 0,
        "slot": "2",
        "type": "t_mapping(t_address,t_uint256)"
      },
      {
        "astId": 467,
        "contract": "contracts/Lottery.sol:Lottery",
        "label": "uniquePlayers",
        "offset": 0,
        "slot": "3",
        "type": "t_mapping(t_address,t_bool)"
      },
      {
        "astId": 470,
        "contract": "contracts/Lottery.sol:Lottery",
        "label": "players",
        "offset": 0,
        "slot": "4",
        "type": "t_array(t_address)dyn_storage"
      },
      {
        "astId": 476,
        "contract": "contracts/Lottery.sol:Lottery",
        "label": "cachedWinners",
        "offset": 0,
        "slot": "5",
        "type": "t_array(t_address)dyn_storage"
      },
      {
        "astId": 478,
        "contract": "contracts/Lottery.sol:Lottery",
        "label": "totalPendingWithdrawals",
        "offset": 0,
        "slot": "6",
        "type": "t_uint256"
      },
      {
        "astId": 481,
        "contract": "contracts/Lottery.sol:Lottery",
        "label": "isLotteryActive",
        "offset": 0,
        "slot": "7",
        "type": "t_bool"
      },
      {
        "astId": 483,
        "contract": "contracts/Lottery.sol:Lottery",
        "label": "lotteryStartTime",
        "offset": 0,
        "slot": "8",
        "type": "t_uint256"
      },
      {
        "astId": 485,
        "contract": "contracts/Lottery.sol:Lottery",
        "label": "lotteryDuration",
        "offset": 0,
        "slot": "9",
        "type": "t_uint256"
      },
      {
        "astId": 493,
        "contract": "contracts/Lottery.sol:Lottery",
        "label": "totalTickets",
        "offset": 0,
        "slot": "10",
        "type": "t_uint256"
      },
      {
        "astId": 783,
        "contract": "contracts/Lottery.sol:Lottery",
        "label": "locked",
        "offset": 0,
        "slot": "11",
        "type": "t_bool"
      }
    ],
    "types": {
      "t_address": {
        "encoding": "inplace",
        "label": "address",
        "numberOfBytes": "20"
      },
      "t_array(t_address)dyn_storage": {
        "base": "t_address",
        "encoding": "dynamic_array",
        "label": "address[]",
        "numberOfBytes": "32"
      },
      "t_bool": {
        "encoding": "inplace",
        "label": "bool",
        "numberOfBytes": "1"
      },
      "t_mapping(t_address,t_bool)": {
        "encoding": "mapping",
        "key": "t_address",
        "label": "mapping(address => bool)",
        "numberOfBytes": "32",
        "value": "t_bool"
      },
      "t_mapping(t_address,t_uint256)": {
        "encoding": "mapping",
        "key": "t_address",
        "label": "mapping(address => uint256)",
        "numberOfBytes": "32",
        "value": "t_uint256"
      },
      "t_uint256": {
        "encoding": "inplace",
        "label": "uint256",
        "numberOfBytes": "32"
      }
    }
  }
}