{
  "address": "0x066A8287fF6907edB6972A421AbE3cD53800C2AB",
  "abi": [
    {
      "inputs": [],
      "stateMutability": "nonpayable",
      "type": "constructor"
    },
    {
      "inputs": [],
      "name": "MinimumEntryFeeNotMet",
      "type": "error"
    },
    {
      "inputs": [],
      "name": "NoPlayersInLottery",
      "type": "error"
    },
    {
      "inputs": [],
      "name": "NoWinningsToWithdraw",
      "type": "error"
    },
    {
      "inputs": [],
      "name": "WithdrawFailed",
      "type": "error"
    },
    {
      "anonymous": false,
      "inputs": [
        {
          "indexed": true,
          "internalType": "address",
          "name": "previousOwner",
          "type": "address"
        },
        {
          "indexed": true,
          "internalType": "address",
          "name": "newOwner",
          "type": "address"
        }
      ],
      "name": "OwnershipTransferred",
      "type": "event"
    },
    {
      "anonymous": false,
      "inputs": [
        {
          "indexed": true,
          "internalType": "address",
          "name": "player",
          "type": "address"
        },
        {
          "indexed": false,
          "internalType": "uint256",
          "name": "amount",
          "type": "uint256"
        }
      ],
      "name": "TicketPurchased",
      "type": "event"
    },
    {
      "anonymous": false,
      "inputs": [
        {
          "indexed": true,
          "internalType": "address",
          "name": "winner",
          "type": "address"
        },
        {
          "indexed": false,
          "internalType": "uint256",
          "name": "amount",
          "type": "uint256"
        }
      ],
      "name": "WinnerPicked",
      "type": "event"
    },
    {
      "anonymous": false,
      "inputs": [
        {
          "indexed": true,
          "internalType": "address",
          "name": "winner",
          "type": "address"
        },
        {
          "indexed": false,
          "internalType": "uint256",
          "name": "amount",
          "type": "uint256"
        }
      ],
      "name": "WinningsClaimed",
      "type": "event"
    },
    {
      "inputs": [],
      "name": "MANAGER_PERCENTAGE",
      "outputs": [
        {
          "internalType": "uint256",
          "name": "",
          "type": "uint256"
        }
      ],
      "stateMutability": "view",
      "type": "function"
    },
    {
      "inputs": [],
      "name": "MINIMUM_ENTRY_FEE",
      "outputs": [
        {
          "internalType": "uint256",
          "name": "",
          "type": "uint256"
        }
      ],
      "stateMutability": "view",
      "type": "function"
    },
    {
      "inputs": [],
      "name": "enter",
      "outputs": [],
      "stateMutability": "payable",
      "type": "function"
    },
    {
      "inputs": [
        {
          "internalType": "address",
          "name": "player",
          "type": "address"
        }
      ],
      "name": "getPlayerTicketCount",
      "outputs": [
        {
          "internalType": "uint256",
          "name": "",
          "type": "uint256"
        }
      ],
      "stateMutability": "view",
      "type": "function"
    },
    {
      "inputs": [],
      "name": "getPlayers",
      "outputs": [
        {
          "internalType": "address payable[]",
          "name": "",
          "type": "address[]"
        }
      ],
      "stateMutability": "view",
      "type": "function"
    },
    {
      "inputs": [],
      "name": "getTotalPrizePool",
      "outputs": [
        {
          "internalType": "uint256",
          "name": "",
          "type": "uint256"
        }
      ],
      "stateMutability": "view",
      "type": "function"
    },
    {
      "inputs": [],
      "name": "lastDrawTimestamp",
      "outputs": [
        {
          "internalType": "uint256",
          "name": "",
          "type": "uint256"
        }
      ],
      "stateMutability": "view",
      "type": "function"
    },
    {
      "inputs": [],
      "name": "owner",
      "outputs": [
        {
          "internalType": "address",
          "name": "",
          "type": "address"
        }
      ],
      "stateMutability": "view",
      "type": "function"
    },
    {
      "inputs": [],
      "name": "pickWinner",
      "outputs": [],
      "stateMutability": "nonpayable",
      "type": "function"
    },
    {
      "inputs": [
        {
          "internalType": "uint256",
          "name": "",
          "type": "uint256"
        }
      ],
      "name": "playerAddresses",
      "outputs": [
        {
          "internalType": "address payable",
          "name": "",
          "type": "address"
        }
      ],
      "stateMutability": "view",
      "type": "function"
    },
    {
      "inputs": [
        {
          "internalType": "address",
          "name": "",
          "type": "address"
        }
      ],
      "name": "players",
      "outputs": [
        {
          "internalType": "uint256",
          "name": "amount",
          "type": "uint256"
        },
        {
          "internalType": "uint256",
          "name": "ticketCount",
          "type": "uint256"
        }
      ],
      "stateMutability": "view",
      "type": "function"
    },
    {
      "inputs": [],
      "name": "renounceOwnership",
      "outputs": [],
      "stateMutability": "nonpayable",
      "type": "function"
    },
    {
      "inputs": [
        {
          "internalType": "address",
          "name": "newOwner",
          "type": "address"
        }
      ],
      "name": "transferOwnership",
      "outputs": [],
      "stateMutability": "nonpayable",
      "type": "function"
    },
    {
      "inputs": [
        {
          "internalType": "address",
          "name": "",
          "type": "address"
        }
      ],
      "name": "winnings",
      "outputs": [
        {
          "internalType": "uint256",
          "name": "",
          "type": "uint256"
        }
      ],
      "stateMutability": "view",
      "type": "function"
    },
    {
      "inputs": [],
      "name": "withdrawWinnings",
      "outputs": [],
      "stateMutability": "nonpayable",
      "type": "function"
    }
  ],
  "transactionHash": "0x813d1f3c6bb3a8c79c49547b2a96b8fc9c0ecdcfb0cc058dbc7d962115f9f84c",
  "args": [],
  "numDeployments": 2,
  "solcInputHash": "4fb5331c815a2c65d93e05eaa0293d9a",
  "bytecode": "0x60c060405234801561001057600080fd5b5061001a33610038565b600180556005608081905266038d7ea4c6800060a052429055610088565b600080546001600160a01b038381166001600160a01b0319831681178455604051919092169283917f8be0079c531659141344cd1fd0a4f28419497f9722a3daafe3b4186f6b6457e09190a35050565b60805160a051610d7f6100c2600039600081816101980152818161085d015261091f01526000818161024e015261053f0152610d7f6000f3fe6080604052600436106100e85760003560e01c80638c21460b1161008a578063e2eb41ff11610059578063e2eb41ff14610285578063e97dcb62146102ce578063ea3a1499146102d6578063f2fde38b1461030357600080fd5b80638c21460b146102085780638da5cb5b1461021e5780639513d3e91461023c578063cc42e83a1461027057600080fd5b806349debdbc116100c657806349debdbc146101865780635d495aea146101ba578063715018a6146101d15780638b5b9ccc146101e657600080fd5b806315c6aee2146100ed578063160a48b91461012a5780631a89a43b1461014d575b600080fd5b3480156100f957600080fd5b5061010d610108366004610b9d565b610323565b6040516001600160a01b0390911681526020015b60405180910390f35b34801561013657600080fd5b5061013f61034d565b604051908152602001610121565b34801561015957600080fd5b5061013f610168366004610bb6565b6001600160a01b031660009081526003602052604090206001015490565b34801561019257600080fd5b5061013f7f000000000000000000000000000000000000000000000000000000000000000081565b3480156101c657600080fd5b506101cf6103bc565b005b3480156101dd57600080fd5b506101cf6106f4565b3480156101f257600080fd5b506101fb610708565b6040516101219190610be6565b34801561021457600080fd5b5061013f60055481565b34801561022a57600080fd5b506000546001600160a01b031661010d565b34801561024857600080fd5b5061013f7f000000000000000000000000000000000000000000000000000000000000000081565b34801561027c57600080fd5b506101cf61076a565b34801561029157600080fd5b506102b96102a0366004610bb6565b6003602052600090815260409020805460019091015482565b60408051928352602083019190915201610121565b6101cf61085b565b3480156102e257600080fd5b5061013f6102f1366004610bb6565b60026020526000908152604090205481565b34801561030f57600080fd5b506101cf61031e366004610bb6565b6109a2565b6004818154811061033357600080fd5b6000918252602090912001546001600160a01b0316905081565b600080805b6004548110156103b657600360006004838154811061037357610373610c33565b60009182526020808320909101546001600160a01b031683528201929092526040019020546103a29083610c5f565b9150806103ae81610c78565b915050610352565b50919050565b6103c4610a20565b6004546000036103e75760405163be53992960e01b815260040160405180910390fd5b6000805b60045481101561044f57600360006004838154811061040c5761040c610c33565b60009182526020808320909101546001600160a01b0316835282019290925260400190205461043b9083610c5f565b91508061044781610c78565b9150506103eb565b5042600581905560405160009161046e91449190600490602001610c91565b60408051601f198184030181529190528051602090910120905060006104948383610cf7565b9050600080805b6004548110156105355760036000600483815481106104bc576104bc610c33565b60009182526020808320909101546001600160a01b031683528201929092526040019020546104eb9084610c5f565b9250838310610523576004818154811061050757610507610c33565b6000918252602090912001546001600160a01b03169150610535565b8061052d81610c78565b91505061049b565b50600060646105647f000000000000000000000000000000000000000000000000000000000000000088610d0b565b61056e9190610d22565b9050600061057c8288610d36565b6001600160a01b0384166000908152600260205260408120805492935083929091906105a9908490610c5f565b9091555050600080546040516001600160a01b039091169184156108fc02918591818181858888f193505050501580156105e7573d6000803e3d6000fd5b50826001600160a01b03167f64791dbae5677392ba76761a5273633cec8f1d9d8cfe808da7bac6ef16a880be8260405161062391815260200190565b60405180910390a260005b6004548110156106cc576000600360006004848154811061065157610651610c33565b60009182526020808320909101546001600160a01b031683528201929092526040018120919091556004805460039183918590811061069257610692610c33565b60009182526020808320909101546001600160a01b03168352820192909252604001902060010155806106c481610c78565b91505061062e565b5060408051600081526020810191829052516106ea91600491610b23565b5050505050505050565b6106fc610a20565b6107066000610a7a565b565b6060600480548060200260200160405190810160405280929190818152602001828054801561076057602002820191906000526020600020905b81546001600160a01b03168152600190910190602001808311610742575b5050505050905090565b610772610aca565b33600090815260026020526040812054908190036107a35760405163275e076760e01b815260040160405180910390fd5b336000818152600260205260408082208290555190919083908381818185875af1925050503d80600081146107f4576040519150601f19603f3d011682016040523d82523d6000602084013e6107f9565b606091505b505090508061081b57604051631d42c86760e21b815260040160405180910390fd5b60405182815233907f1a31e733a172afcf46074b3106c17f0c298e226442682a03c1e99ce256139ec29060200160405180910390a2505061070660018055565b7f000000000000000000000000000000000000000000000000000000000000000034101561089c57604051631c6a5fdf60e21b815260040160405180910390fd5b3360009081526003602052604081205490036108f557600480546001810182556000919091527f8a35acfbc15ff81a39ae7d344fd709f28e8600b4aa8c65c6b64bfe7fe36bd19b0180546001600160a01b031916331790555b3360009081526003602052604081208054349290610914908490610c5f565b9091555061094490507f000000000000000000000000000000000000000000000000000000000000000034610d22565b3360009081526003602052604081206001018054909190610966908490610c5f565b909155505060405134815233907f0668f5b446eb814fe35b3206f43f14bd8567ba04ddaf7a3ee56516929ab22ccb9060200160405180910390a2565b6109aa610a20565b6001600160a01b038116610a145760405162461bcd60e51b815260206004820152602660248201527f4f776e61626c653a206e6577206f776e657220697320746865207a65726f206160448201526564647265737360d01b60648201526084015b60405180910390fd5b610a1d81610a7a565b50565b6000546001600160a01b031633146107065760405162461bcd60e51b815260206004820181905260248201527f4f776e61626c653a2063616c6c6572206973206e6f7420746865206f776e65726044820152606401610a0b565b600080546001600160a01b038381166001600160a01b0319831681178455604051919092169283917f8be0079c531659141344cd1fd0a4f28419497f9722a3daafe3b4186f6b6457e09190a35050565b600260015403610b1c5760405162461bcd60e51b815260206004820152601f60248201527f5265656e7472616e637947756172643a207265656e7472616e742063616c6c006044820152606401610a0b565b6002600155565b828054828255906000526020600020908101928215610b78579160200282015b82811115610b7857825182546001600160a01b0319166001600160a01b03909116178255602090920191600190910190610b43565b50610b84929150610b88565b5090565b5b80821115610b845760008155600101610b89565b600060208284031215610baf57600080fd5b5035919050565b600060208284031215610bc857600080fd5b81356001600160a01b0381168114610bdf57600080fd5b9392505050565b6020808252825182820181905260009190848201906040850190845b81811015610c275783516001600160a01b031683529284019291840191600101610c02565b50909695505050505050565b634e487b7160e01b600052603260045260246000fd5b634e487b7160e01b600052601160045260246000fd5b80820180821115610c7257610c72610c49565b92915050565b600060018201610c8a57610c8a610c49565b5060010190565b838152600060208481840152604083018454856000528260002060005b82811015610cd35781546001600160a01b031684529284019260019182019101610cae565b509198975050505050505050565b634e487b7160e01b600052601260045260246000fd5b600082610d0657610d06610ce1565b500690565b8082028115828204841417610c7257610c72610c49565b600082610d3157610d31610ce1565b500490565b81810381811115610c7257610c72610c4956fea264697066735822122050fc778b45de37baf48479d1cdd0745eecafb27dc3c40c223036bc70a5d9709264736f6c63430008110033",
  "devdoc": {
    "kind": "dev",
    "methods": {
      "owner()": {
        "details": "Returns the address of the current owner."
      },
      "renounceOwnership()": {
        "details": "Leaves the contract without owner. It will not be possible to call `onlyOwner` functions anymore. Can only be called by the current owner. NOTE: Renouncing ownership will leave the contract without an owner, thereby removing any functionality that is only available to the owner."
      },
      "transferOwnership(address)": {
        "details": "Transfers ownership of the contract to a new account (`newOwner`). Can only be called by the current owner."
      }
    },
    "version": 1
  },
  "userdoc": {
    "kind": "user",
    "methods": {},
    "version": 1
  },
  "storageLayout": {
    "storage": [
      {
        "astId": 7,
        "contract": "contracts/LotteryContract.sol:LotteryContract",
        "label": "_owner",
        "offset": 0,
        "slot": "0",
        "type": "t_address"
      },
      {
        "astId": 123,
        "contract": "contracts/LotteryContract.sol:LotteryContract",
        "label": "_status",
        "offset": 0,
        "slot": "1",
        "type": "t_uint256"
      },
      {
        "astId": 215,
        "contract": "contracts/LotteryContract.sol:LotteryContract",
        "label": "winnings",
        "offset": 0,
        "slot": "2",
        "type": "t_mapping(t_address,t_uint256)"
      },
      {
        "astId": 220,
        "contract": "contracts/LotteryContract.sol:LotteryContract",
        "label": "players",
        "offset": 0,
        "slot": "3",
        "type": "t_mapping(t_address,t_struct(Player)211_storage)"
      },
      {
        "astId": 223,
        "contract": "contracts/LotteryContract.sol:LotteryContract",
        "label": "playerAddresses",
        "offset": 0,
        "slot": "4",
        "type": "t_array(t_address_payable)dyn_storage"
      },
      {
        "astId": 229,
        "contract": "contracts/LotteryContract.sol:LotteryContract",
        "label": "lastDrawTimestamp",
        "offset": 0,
        "slot": "5",
        "type": "t_uint256"
      }
    ],
    "types": {
      "t_address": {
        "encoding": "inplace",
        "label": "address",
        "numberOfBytes": "20"
      },
      "t_address_payable": {
        "encoding": "inplace",
        "label": "address payable",
        "numberOfBytes": "20"
      },
      "t_array(t_address_payable)dyn_storage": {
        "base": "t_address_payable",
        "encoding": "dynamic_array",
        "label": "address payable[]",
        "numberOfBytes": "32"
      },
      "t_mapping(t_address,t_struct(Player)211_storage)": {
        "encoding": "mapping",
        "key": "t_address",
        "label": "mapping(address => struct LotteryContract.Player)",
        "numberOfBytes": "32",
        "value": "t_struct(Player)211_storage"
      },
      "t_mapping(t_address,t_uint256)": {
        "encoding": "mapping",
        "key": "t_address",
        "label": "mapping(address => uint256)",
        "numberOfBytes": "32",
        "value": "t_uint256"
      },
      "t_struct(Player)211_storage": {
        "encoding": "inplace",
        "label": "struct LotteryContract.Player",
        "members": [
          {
            "astId": 208,
            "contract": "contracts/LotteryContract.sol:LotteryContract",
            "label": "amount",
            "offset": 0,
            "slot": "0",
            "type": "t_uint256"
          },
          {
            "astId": 210,
            "contract": "contracts/LotteryContract.sol:LotteryContract",
            "label": "ticketCount",
            "offset": 0,
            "slot": "1",
            "type": "t_uint256"
          }
        ],
        "numberOfBytes": "64"
      },
      "t_uint256": {
        "encoding": "inplace",
        "label": "uint256",
        "numberOfBytes": "32"
      }
    }
  }
}