{
  "address": "0x84c34F0b246965dD34c3Dd504eB688068A5f09bE",
  "abi": [
    {
      "inputs": [],
      "stateMutability": "nonpayable",
      "type": "constructor"
    },
    {
      "inputs": [],
      "name": "CooldownPeriodNotOver",
      "type": "error"
    },
    {
      "inputs": [],
      "name": "MinimumEntryFeeNotMet",
      "type": "error"
    },
    {
      "inputs": [],
      "name": "NoPlayersInLottery",
      "type": "error"
    },
    {
      "inputs": [],
      "name": "NoWinningsToWithdraw",
      "type": "error"
    },
    {
      "inputs": [],
      "name": "WithdrawFailed",
      "type": "error"
    },
    {
      "anonymous": false,
      "inputs": [
        {
          "indexed": true,
          "internalType": "address",
          "name": "previousOwner",
          "type": "address"
        },
        {
          "indexed": true,
          "internalType": "address",
          "name": "newOwner",
          "type": "address"
        }
      ],
      "name": "OwnershipTransferred",
      "type": "event"
    },
    {
      "anonymous": false,
      "inputs": [
        {
          "indexed": true,
          "internalType": "address",
          "name": "player",
          "type": "address"
        },
        {
          "indexed": false,
          "internalType": "uint256",
          "name": "amount",
          "type": "uint256"
        }
      ],
      "name": "TicketPurchased",
      "type": "event"
    },
    {
      "anonymous": false,
      "inputs": [
        {
          "indexed": true,
          "internalType": "address",
          "name": "winner",
          "type": "address"
        },
        {
          "indexed": false,
          "internalType": "uint256",
          "name": "amount",
          "type": "uint256"
        }
      ],
      "name": "WinnerPicked",
      "type": "event"
    },
    {
      "anonymous": false,
      "inputs": [
        {
          "indexed": true,
          "internalType": "address",
          "name": "winner",
          "type": "address"
        },
        {
          "indexed": false,
          "internalType": "uint256",
          "name": "amount",
          "type": "uint256"
        }
      ],
      "name": "WinningsClaimed",
      "type": "event"
    },
    {
      "inputs": [],
      "name": "MANAGER_PERCENTAGE",
      "outputs": [
        {
          "internalType": "uint256",
          "name": "",
          "type": "uint256"
        }
      ],
      "stateMutability": "view",
      "type": "function"
    },
    {
      "inputs": [],
      "name": "MINIMUM_ENTRY_FEE",
      "outputs": [
        {
          "internalType": "uint256",
          "name": "",
          "type": "uint256"
        }
      ],
      "stateMutability": "view",
      "type": "function"
    },
    {
      "inputs": [],
      "name": "claimWinnings",
      "outputs": [],
      "stateMutability": "nonpayable",
      "type": "function"
    },
    {
      "inputs": [],
      "name": "cooldownPeriod",
      "outputs": [
        {
          "internalType": "uint256",
          "name": "",
          "type": "uint256"
        }
      ],
      "stateMutability": "view",
      "type": "function"
    },
    {
      "inputs": [],
      "name": "enter",
      "outputs": [],
      "stateMutability": "payable",
      "type": "function"
    },
    {
      "inputs": [
        {
          "internalType": "address",
          "name": "player",
          "type": "address"
        }
      ],
      "name": "getPlayerTicketCount",
      "outputs": [
        {
          "internalType": "uint256",
          "name": "",
          "type": "uint256"
        }
      ],
      "stateMutability": "view",
      "type": "function"
    },
    {
      "inputs": [],
      "name": "getPlayers",
      "outputs": [
        {
          "internalType": "address payable[]",
          "name": "",
          "type": "address[]"
        }
      ],
      "stateMutability": "view",
      "type": "function"
    },
    {
      "inputs": [],
      "name": "getTotalPrizePool",
      "outputs": [
        {
          "internalType": "uint256",
          "name": "",
          "type": "uint256"
        }
      ],
      "stateMutability": "view",
      "type": "function"
    },
    {
      "inputs": [],
      "name": "lastDrawTimestamp",
      "outputs": [
        {
          "internalType": "uint256",
          "name": "",
          "type": "uint256"
        }
      ],
      "stateMutability": "view",
      "type": "function"
    },
    {
      "inputs": [],
      "name": "owner",
      "outputs": [
        {
          "internalType": "address",
          "name": "",
          "type": "address"
        }
      ],
      "stateMutability": "view",
      "type": "function"
    },
    {
      "inputs": [],
      "name": "pickWinner",
      "outputs": [],
      "stateMutability": "nonpayable",
      "type": "function"
    },
    {
      "inputs": [
        {
          "internalType": "uint256",
          "name": "",
          "type": "uint256"
        }
      ],
      "name": "playerAddresses",
      "outputs": [
        {
          "internalType": "address payable",
          "name": "",
          "type": "address"
        }
      ],
      "stateMutability": "view",
      "type": "function"
    },
    {
      "inputs": [
        {
          "internalType": "address",
          "name": "",
          "type": "address"
        }
      ],
      "name": "players",
      "outputs": [
        {
          "internalType": "uint256",
          "name": "amount",
          "type": "uint256"
        },
        {
          "internalType": "uint256",
          "name": "ticketCount",
          "type": "uint256"
        }
      ],
      "stateMutability": "view",
      "type": "function"
    },
    {
      "inputs": [],
      "name": "renounceOwnership",
      "outputs": [],
      "stateMutability": "nonpayable",
      "type": "function"
    },
    {
      "inputs": [
        {
          "internalType": "address",
          "name": "newOwner",
          "type": "address"
        }
      ],
      "name": "transferOwnership",
      "outputs": [],
      "stateMutability": "nonpayable",
      "type": "function"
    },
    {
      "inputs": [],
      "name": "winningPlayer",
      "outputs": [
        {
          "internalType": "address payable",
          "name": "",
          "type": "address"
        }
      ],
      "stateMutability": "view",
      "type": "function"
    },
    {
      "inputs": [
        {
          "internalType": "address",
          "name": "",
          "type": "address"
        }
      ],
      "name": "winnings",
      "outputs": [
        {
          "internalType": "uint256",
          "name": "",
          "type": "uint256"
        }
      ],
      "stateMutability": "view",
      "type": "function"
    },
    {
      "inputs": [],
      "name": "withdrawWinnings",
      "outputs": [],
      "stateMutability": "nonpayable",
      "type": "function"
    }
  ],
  "transactionHash": "0x6263d21893f35855ecd6f888d37b9794f7838d85f12373d58c21af13b24a92f2",
  "args": [],
  "numDeployments": 1,
  "solcInputHash": "8570d45ba49491db31cb889b255ebb3e",
  "bytecode": "0x60c060405234801561001057600080fd5b5061001a3361003e565b60018055600560805266038d7ea4c6800060a052426006556201518060075561008e565b600080546001600160a01b038381166001600160a01b0319831681178455604051919092169283917f8be0079c531659141344cd1fd0a4f28419497f9722a3daafe3b4186f6b6457e09190a35050565b60805160a051610fb96100c8600039600081816101cf01528181610a9c0152610b5e0152600081816102a501526105db0152610fb96000f3fe6080604052600436106101095760003560e01c80638c21460b11610095578063cc42e83a11610064578063cc42e83a146102dc578063e2eb41ff146102f1578063e97dcb621461033a578063ea3a149914610342578063f2fde38b1461036f57600080fd5b80638c21460b1461025f5780638da5cb5b146102755780639513d3e914610293578063b401faf1146102c757600080fd5b806349debdbc116100dc57806349debdbc146101bd5780635ad39846146101f15780635d495aea14610211578063715018a6146102285780638b5b9ccc1461023d57600080fd5b806304646a491461010e57806315c6aee214610137578063160a48b91461016f5780631a89a43b14610184575b600080fd5b34801561011a57600080fd5b5061012460075481565b6040519081526020015b60405180910390f35b34801561014357600080fd5b50610157610152366004610dd7565b61038f565b6040516001600160a01b03909116815260200161012e565b34801561017b57600080fd5b506101246103b9565b34801561019057600080fd5b5061012461019f366004610df0565b6001600160a01b031660009081526003602052604090206001015490565b3480156101c957600080fd5b506101247f000000000000000000000000000000000000000000000000000000000000000081565b3480156101fd57600080fd5b50600554610157906001600160a01b031681565b34801561021d57600080fd5b50610226610428565b005b34801561023457600080fd5b50610226610790565b34801561024957600080fd5b506102526107a4565b60405161012e9190610e20565b34801561026b57600080fd5b5061012460065481565b34801561028157600080fd5b506000546001600160a01b0316610157565b34801561029f57600080fd5b506101247f000000000000000000000000000000000000000000000000000000000000000081565b3480156102d357600080fd5b50610226610806565b3480156102e857600080fd5b506102266109b7565b3480156102fd57600080fd5b5061032561030c366004610df0565b6003602052600090815260409020805460019091015482565b6040805192835260208301919091520161012e565b610226610a9a565b34801561034e57600080fd5b5061012461035d366004610df0565b60026020526000908152604090205481565b34801561037b57600080fd5b5061022661038a366004610df0565b610be1565b6004818154811061039f57600080fd5b6000918252602090912001546001600160a01b0316905081565b600080805b6004548110156104225760036000600483815481106103df576103df610e6d565b60009182526020808320909101546001600160a01b0316835282019290925260400190205461040e9083610e99565b91508061041a81610eb2565b9150506103be565b50919050565b610430610c5a565b6007546006546104409190610e99565b421015610460576040516352c459f960e01b815260040160405180910390fd5b6004546000036104835760405163be53992960e01b815260040160405180910390fd5b6000805b6004548110156104eb5760036000600483815481106104a8576104a8610e6d565b60009182526020808320909101546001600160a01b031683528201929092526040019020546104d79083610e99565b9150806104e381610eb2565b915050610487565b5042600681905560405160009161050a91449190600490602001610ecb565b60408051601f198184030181529190528051602090910120905060006105308383610f31565b9050600080805b6004548110156105d157600360006004838154811061055857610558610e6d565b60009182526020808320909101546001600160a01b031683528201929092526040019020546105879084610e99565b92508383106105bf57600481815481106105a3576105a3610e6d565b6000918252602090912001546001600160a01b031691506105d1565b806105c981610eb2565b915050610537565b50600060646106007f000000000000000000000000000000000000000000000000000000000000000088610f45565b61060a9190610f5c565b905060006106188288610f70565b6001600160a01b038416600090815260026020526040812080549293508392909190610645908490610e99565b9091555050600080546040516001600160a01b039091169184156108fc02918591818181858888f19350505050158015610683573d6000803e3d6000fd5b50826001600160a01b03167f64791dbae5677392ba76761a5273633cec8f1d9d8cfe808da7bac6ef16a880be826040516106bf91815260200190565b60405180910390a260005b60045481101561076857600060036000600484815481106106ed576106ed610e6d565b60009182526020808320909101546001600160a01b031683528201929092526040018120919091556004805460039183918590811061072e5761072e610e6d565b60009182526020808320909101546001600160a01b031683528201929092526040019020600101558061076081610eb2565b9150506106ca565b50604080516000815260208101918290525161078691600491610d5d565b5050505050505050565b610798610c5a565b6107a26000610cb4565b565b606060048054806020026020016040519081016040528092919081815260200182805480156107fc57602002820191906000526020600020905b81546001600160a01b031681526001909101906020018083116107de575b5050505050905090565b61080e610d04565b6005546001600160a01b031633146108815760405162461bcd60e51b815260206004820152602b60248201527f4f6e6c79207468652077696e6e696e6720706c617965722063616e20636c616960448201526a6d20746865207072697a6560a81b60648201526084015b60405180910390fd5b33600090815260036020526040902054806108d55760405162461bcd60e51b81526020600482015260146024820152734e6f2077696e6e696e677320746f20636c61696d60601b6044820152606401610878565b604051600090339083908381818185875af1925050503d8060008114610917576040519150601f19603f3d011682016040523d82523d6000602084013e61091c565b606091505b50509050806109605760405162461bcd60e51b815260206004820152601060248201526f2a3930b739b332b9103330b4b632b21760811b6044820152606401610878565b3360008181526003602052604080822091909155517f1a31e733a172afcf46074b3106c17f0c298e226442682a03c1e99ce256139ec2906109a49085815260200190565b60405180910390a250506107a260018055565b6109bf610d04565b33600090815260026020526040812054908190036109f05760405163275e076760e01b815260040160405180910390fd5b336000818152600260205260408082208290555190919083908381818185875af1925050503d8060008114610a41576040519150601f19603f3d011682016040523d82523d6000602084013e610a46565b606091505b5050905080610a6857604051631d42c86760e21b815260040160405180910390fd5b60405182815233907f1a31e733a172afcf46074b3106c17f0c298e226442682a03c1e99ce256139ec2906020016109a4565b7f0000000000000000000000000000000000000000000000000000000000000000341015610adb57604051631c6a5fdf60e21b815260040160405180910390fd5b336000908152600360205260408120549003610b3457600480546001810182556000919091527f8a35acfbc15ff81a39ae7d344fd709f28e8600b4aa8c65c6b64bfe7fe36bd19b0180546001600160a01b031916331790555b3360009081526003602052604081208054349290610b53908490610e99565b90915550610b8390507f000000000000000000000000000000000000000000000000000000000000000034610f5c565b3360009081526003602052604081206001018054909190610ba5908490610e99565b909155505060405134815233907f0668f5b446eb814fe35b3206f43f14bd8567ba04ddaf7a3ee56516929ab22ccb9060200160405180910390a2565b610be9610c5a565b6001600160a01b038116610c4e5760405162461bcd60e51b815260206004820152602660248201527f4f776e61626c653a206e6577206f776e657220697320746865207a65726f206160448201526564647265737360d01b6064820152608401610878565b610c5781610cb4565b50565b6000546001600160a01b031633146107a25760405162461bcd60e51b815260206004820181905260248201527f4f776e61626c653a2063616c6c6572206973206e6f7420746865206f776e65726044820152606401610878565b600080546001600160a01b038381166001600160a01b0319831681178455604051919092169283917f8be0079c531659141344cd1fd0a4f28419497f9722a3daafe3b4186f6b6457e09190a35050565b600260015403610d565760405162461bcd60e51b815260206004820152601f60248201527f5265656e7472616e637947756172643a207265656e7472616e742063616c6c006044820152606401610878565b6002600155565b828054828255906000526020600020908101928215610db2579160200282015b82811115610db257825182546001600160a01b0319166001600160a01b03909116178255602090920191600190910190610d7d565b50610dbe929150610dc2565b5090565b5b80821115610dbe5760008155600101610dc3565b600060208284031215610de957600080fd5b5035919050565b600060208284031215610e0257600080fd5b81356001600160a01b0381168114610e1957600080fd5b9392505050565b6020808252825182820181905260009190848201906040850190845b81811015610e615783516001600160a01b031683529284019291840191600101610e3c565b50909695505050505050565b634e487b7160e01b600052603260045260246000fd5b634e487b7160e01b600052601160045260246000fd5b80820180821115610eac57610eac610e83565b92915050565b600060018201610ec457610ec4610e83565b5060010190565b838152600060208481840152604083018454856000528260002060005b82811015610f0d5781546001600160a01b031684529284019260019182019101610ee8565b509198975050505050505050565b634e487b7160e01b600052601260045260246000fd5b600082610f4057610f40610f1b565b500690565b8082028115828204841417610eac57610eac610e83565b600082610f6b57610f6b610f1b565b500490565b81810381811115610eac57610eac610e8356fea26469706673582212202bd66f03cbc3602aca06b2fb0615797960e3d752bbc9227827006bd7a8da38ba64736f6c63430008110033",
  "devdoc": {
    "kind": "dev",
    "methods": {
      "owner()": {
        "details": "Returns the address of the current owner."
      },
      "renounceOwnership()": {
        "details": "Leaves the contract without owner. It will not be possible to call `onlyOwner` functions anymore. Can only be called by the current owner. NOTE: Renouncing ownership will leave the contract without an owner, thereby removing any functionality that is only available to the owner."
      },
      "transferOwnership(address)": {
        "details": "Transfers ownership of the contract to a new account (`newOwner`). Can only be called by the current owner."
      }
    },
    "version": 1
  },
  "userdoc": {
    "kind": "user",
    "methods": {},
    "version": 1
  },
  "storageLayout": {
    "storage": [
      {
        "astId": 7,
        "contract": "contracts/LotteryContract.sol:LotteryContract",
        "label": "_owner",
        "offset": 0,
        "slot": "0",
        "type": "t_address"
      },
      {
        "astId": 123,
        "contract": "contracts/LotteryContract.sol:LotteryContract",
        "label": "_status",
        "offset": 0,
        "slot": "1",
        "type": "t_uint256"
      },
      {
        "astId": 217,
        "contract": "contracts/LotteryContract.sol:LotteryContract",
        "label": "winnings",
        "offset": 0,
        "slot": "2",
        "type": "t_mapping(t_address,t_uint256)"
      },
      {
        "astId": 222,
        "contract": "contracts/LotteryContract.sol:LotteryContract",
        "label": "players",
        "offset": 0,
        "slot": "3",
        "type": "t_mapping(t_address,t_struct(Player)213_storage)"
      },
      {
        "astId": 225,
        "contract": "contracts/LotteryContract.sol:LotteryContract",
        "label": "playerAddresses",
        "offset": 0,
        "slot": "4",
        "type": "t_array(t_address_payable)dyn_storage"
      },
      {
        "astId": 227,
        "contract": "contracts/LotteryContract.sol:LotteryContract",
        "label": "winningPlayer",
        "offset": 0,
        "slot": "5",
        "type": "t_address_payable"
      },
      {
        "astId": 233,
        "contract": "contracts/LotteryContract.sol:LotteryContract",
        "label": "lastDrawTimestamp",
        "offset": 0,
        "slot": "6",
        "type": "t_uint256"
      },
      {
        "astId": 235,
        "contract": "contracts/LotteryContract.sol:LotteryContract",
        "label": "cooldownPeriod",
        "offset": 0,
        "slot": "7",
        "type": "t_uint256"
      }
    ],
    "types": {
      "t_address": {
        "encoding": "inplace",
        "label": "address",
        "numberOfBytes": "20"
      },
      "t_address_payable": {
        "encoding": "inplace",
        "label": "address payable",
        "numberOfBytes": "20"
      },
      "t_array(t_address_payable)dyn_storage": {
        "base": "t_address_payable",
        "encoding": "dynamic_array",
        "label": "address payable[]",
        "numberOfBytes": "32"
      },
      "t_mapping(t_address,t_struct(Player)213_storage)": {
        "encoding": "mapping",
        "key": "t_address",
        "label": "mapping(address => struct LotteryContract.Player)",
        "numberOfBytes": "32",
        "value": "t_struct(Player)213_storage"
      },
      "t_mapping(t_address,t_uint256)": {
        "encoding": "mapping",
        "key": "t_address",
        "label": "mapping(address => uint256)",
        "numberOfBytes": "32",
        "value": "t_uint256"
      },
      "t_struct(Player)213_storage": {
        "encoding": "inplace",
        "label": "struct LotteryContract.Player",
        "members": [
          {
            "astId": 210,
            "contract": "contracts/LotteryContract.sol:LotteryContract",
            "label": "amount",
            "offset": 0,
            "slot": "0",
            "type": "t_uint256"
          },
          {
            "astId": 212,
            "contract": "contracts/LotteryContract.sol:LotteryContract",
            "label": "ticketCount",
            "offset": 0,
            "slot": "1",
            "type": "t_uint256"
          }
        ],
        "numberOfBytes": "64"
      },
      "t_uint256": {
        "encoding": "inplace",
        "label": "uint256",
        "numberOfBytes": "32"
      }
    }
  }
}